:020000040000FA
:10000000603D001001030000090300000B03000025
:100010000D0300000F0300001103000000000000AA
:100020000000000000000000000000003502000099
:100030001503000000000000AD020000E90200000E
:100040001B0300001B030000ED1F00001B0300004A
:100050001B0300001B0300001B0300001B03000028
:100060001B0300001B0300001B0300001B03000018
:100070001B030000691500001B0300007D16000033
:100080001B0300001B0300001B0300001B030000F8
:100090001B0300001B0300001B0300001B030000E8
:1000A0001B0300001B030000D10B00001B0300001A
:1000B0001B0300001B0300001B0300001B030000C8
:1000C0001B0300001B0300001B03000000F002F8EC
:1000D00000F068F80AA090E8000C82448344AAF17A
:1000E0000107DA4501D100F05DF8AFF2090EBAE878
:1000F0000F0013F0010F18BFFB1A43F0010318475C
:10010000F06A0000106B0000103A24BF78C878C174
:10011000FAD8520724BF30C830C144BF04680C600D
:10012000704700000023002400250026103A28BF55
:1001300078C1FBD8520728BF30C148BF0B60704759
:100140006E2900F02F82702900F0FC82692900F0EE
:10015000ED81642900F0EA81752900F0E7816F29BB
:1001600000F09282782900F0E0820368DB0928BF62
:1001700041F08001632900F05084732900F0558418
:10018000E32900F06084002070471FB500F0B9FC3F
:1001900004000020002105F035F9401C60601FBDFF
:1001A00010B510BD00F088FC1146FFF7EEFF0FB44C
:1001B00001F06EFF0FBC03F01FF900F0A7FC03B4C1
:1001C000FFF7EEFF03BC00F0EBFC000080F30988B2
:1001D0007047EFF309807047684680F30988044848
:1001E0000078C00714BF0220032080F314887047F2
:1001F000256A0000DFF818C0EFF305831B0618BF5F
:100200006047EFF31483DB0708BF604700DF7047E8
:100210009D420000DFF818C0EFF305831B0618BFEE
:100220006047EFF31483DB0708BF604700DF7047C8
:1002300081440000EFF30980816911F8021CF1B9D3
:1002400090E80F10E047EFF3098C8CE80700144B9F
:1002500093E8060091420FD039B12CE9F00FC1F8B4
:1002600028C00CB404F0CCFC0CBC1A60D2F828C036
:10027000BCE8F00F8CF309886FF0020E704710B5E0
:10028000084A1268914209D8074C54F8214090E876
:100290000F10A047EFF3098C8CE80F0010BD000091
:1002A0000C000010AC3E0000AC3E000004F05EFB11
:1002B0000C4B93E80600914210D0EFF3098C2CE927
:1002C000F00FC1F828C00CB404F09AFC0CBC1A6002
:1002D000D2F828C0BCE8F00F8CF309886FF0020E4A
:1002E000704700000C00001004F052FDE0E7000031
:1002F00003F0C0FF04F04CFDDAE70000FFFFFFFF52
:100300000948804709480047FEE7FEE7FEE7FEE7A9
:10031000FEE7FEE7FEE7FEE7FEE7FEE704480549E5
:10032000034A054B70470000211F0000CD0000006C
:10033000603B0010603D0010603B001000487047BB
:10034000E400001053EA020C00F069802DE9F04B44
:100350004FF00006002B1FBFB3FA83F503FA05F434
:1003600024FA05F65E4012BF1643B2FA82F502FA8D
:1003700005F4C5F120051EBF22FA05FC44EA0C0471
:10038000203556EA044C4FEA144418BF641C4FF061
:1003900000084FF00009904271EB030C39D300299B
:1003A00019BFB1FA81F701FA07F6B0FA80F700FA3F
:1003B00007F6C7F120071EBF20FA07FC46EA0C0625
:1003C0002037B6FBF4FCA7EB0507103F07F01F0B27
:1003D000CBF120062CFA06F60CFA0BFB44BFB34611
:1003E0000026202FA4BF5E464FF0000B5BEA060CF0
:1003F00008BF4FF0010B19EB0B0948EB0608ABFBEC
:10040000027C06FB02CC0BFB03CCC01B71EB0C0186
:10041000C1E70B46024641464846BDE8F08B13B59E
:10042000084318BF4FF0FF300146AFF30080BDE82E
:100430001C4070470FB41CB50C0007AA009001D0F7
:100440002044401E074B7B4469460190069800F00B
:10045000BAFA002C03D06946002000F0C7FA1CBC91
:100460005DF814FBAD05000070B5044685690068B1
:10047000C10601D5302600E02026C00707D070BD98
:10048000D4E9012130469047206A401C20626D1E4D
:10049000F6D570BD70B5044685690078C00707D1F0
:1004A00070BDD4E9012120209047206A401C2062C1
:1004B0006D1EF6D570BD09684A0501D540B270477A
:1004C000C905FCD500B2704709684A0501D5C0B21C
:1004D0007047C905FCD580B2704770B50C4605461B
:1004E000012A05D02878800600D5EA69002302E0B9
:1004F000012305E05B1C934202D2E05C0028F9D1A5
:10050000A869E618C01AA861286A18442862284613
:10051000FFF7AAFF04E0D5E9012114F8010B904789
:10052000B442F8D32846FFF7B5FF70BD2DE9F0417E
:100530000646002410687529314616A510D0FFF72D
:10054000BAFF002802DA404213A507E031688A07A3
:1005500001D512A502E0490704D511A5012401E047
:10056000FFF7B2FF00210A2206F1240709E0B0FBE1
:10057000F2FCB0FBF2F302FB1C003030785418465A
:10058000491C0028F3D123462A463046BDE8F041F5
:1005900000F0BBB9000000002D0000002B0000009F
:1005A0002000000011680268006A530501D5087038
:1005B0000AE0D30501D5088006E0130603D5C2176B
:1005C000C1E9000200E00860012070472DE9FF5FEB
:1005D00015468A460446DFF8AC80F8440027D8E97F
:1005E00000103E46CDE9001010E03AF816106A46B9
:1005F00002A800F034FA411C07D02178890603D5FF
:10060000E269391891420DD80744761C207880069B
:1006100002D5E069B84205DDAE42E6DB3AF81600E5
:100620000028E2D1A069C01BA0612046FFF71CFF93
:10063000D8E90010CDE90010002017E03AF81810B2
:100640006A4602A800F00BFAB0F1FF3F81460BD0DA
:1006500000250DF1080B05E0D4E901211BF8050088
:1006600090476D1C4D45F7D308F10100B04280461C
:10067000E4DB206A384420622046FFF70BFFBDE828
:10068000FF9F0000524E000070B5044621461068DE
:10069000FFF71AFF002104F1240505E000F007022E
:1006A0003032C0086A54491C0028F7D12068002362
:1006B00008A2050708D500F02000084304D0E0692F
:1006C000012305A2401EE0612046BDE8704000F015
:1006D0001CB900000000000030000000F0B40D461E
:1006E0000188090502D51B4C7C4402E0194C7C446E
:1006F0000E34002100F1240305E002F00F06120978
:10070000A65D5E54491C002AF7D102780023120727
:1007100004D5702D06D009B1022311342246F0BC55
:1007200000F0F3B801231034F8E770B504460D4625
:1007300021461068FFF7C8FE024629462046BDE85C
:100740007040CBE70368126843F02003036008237E
:10075000C361C3E74C4D00002DE9F05F89460446B4
:100760004FF0000ADFF874B1FB44C0F820A0204627
:10077000E1688847002874D0252806D0D4E90121F3
:100780009047206A401C2062F1E700265F46204621
:10079000E16888472028054607DB312D05D2781906
:1007A00010F8200C08B10643F1E7B00701D526F098
:1007B0000406C4F81CA00027C4F818A02A2D09D0EC
:1007C000284603F098FB38B304EB8708303DC8F89F
:1007D000185019E059F8041B204604EB8702916178
:1007E000E1688847012F054618D1E069002820DA22
:1007F00026F020061DE0D8F8180000EB800005EB7D
:1008000040003038C8F818002046E168884705469F
:1008100003F071FB0028EED1012F0AD02E2D08D154
:100820002046E16888477F1C0546022F46F02006D7
:10083000C4DBA069002803DA404246F00106A0614B
:10084000F00701D026F010066C2D0BD0682D09D0D2
:100850004C2D39D06A2D35D0742D35D07A2D33D02A
:1008600016E038E0E1682F4620468847B842054642
:1008700009D16C2F26D04FF48060E16806432046F2
:100880008847054604E06C2F1AD04FF48070064369
:100890000DB3A5F14100192802D8203546F40066B1
:1008A0004A462946204626604E46FFF749FC80B15D
:1008B00001280BD0F61D26F0070000F1080956E7C5
:1008C0004020E4E78020D8E70020D6E706F10409BD
:1008D0004DE7284652E7206ABDE8F09FF44C00003F
:1008E00030B505460B462A4613F8014B12F8010BAA
:1008F00008B1A042F8D01CB1002802D06D1CF1E76D
:10090000284630BD7047704770472DE9F0470D46C7
:1009100099469246044600F124080168880604D5E9
:10092000E06921F01001216000E00120A84201DD12
:10093000471B00E00027A1697A1902EB0900081A99
:10094000A0612078C00602D42046FFF78DFD002666
:1009500008E0D4E901211AF806009047206A401CFB
:10096000761C20624E45F4DB2078C0060AD520466E
:10097000FFF77AFD06E0D4E9012130209047206A94
:10098000401C2062381EA7F10107F4DC07E0D4E91F
:10099000012118F805009047206A401C2062281E9B
:1009A000A5F10105F3DC2046FFF774FD2078000671
:1009B00002D50220BDE8F0870120FBE701694A1C4F
:1009C00002610878704700B58FB0CDE90131002190
:1009D000059105497944CDE9031011466846FFF7B2
:1009E000BBFE0FB000BD0000E5FFFFFF0A6802F884
:1009F000010B0A607047D1E900239A4202D2531CCE
:100A00000B601070704710B5436913B1AFF30080ED
:100A100001E0FFF762FD012010BD127800F1240112
:100A20000A7000224A700122EDE711684FF0FF3290
:100A3000E9E710B5436913B1AFF3008001E0FFF7B8
:100A4000C5FD012010BD128800F12401828400221E
:100A5000C2840122EDE711684FF0FF32E9E72DE98A
:100A6000F04116460C46054600F01EF8036893F860
:100A70000101012807D0FF2C12D8185D80B1012098
:100A80002C70BDE8F081D3F807013246214603F20D
:100A90000713C7182846BC46BDE8F041002360474D
:100AA0004FF0FF30EDE7000010B500F02AF8001D10
:100AB00010BD00BF514900007546FFF73FFCAE4630
:100AC00005006946534620F00700854618B020B55A
:100AD000FFF724FCBDE820404FF000064FF0000770
:100AE0004FF000084FF0000BAC46ACE8C009ACE892
:100AF000C009ACE8C009ACE8C00921F007018D4687
:100B0000704710B5FFF71AFC203010BD10B5044631
:100B1000AFF300802046BDE81040FFF750BB000057
:100B20004FF0013C50F8042B51F8043B9A4221D17C
:100B3000A2EB0C03934313EACC1317D150F8042B08
:100B400051F8043B9A4215D1A2EB0C03934313EAEC
:100B5000CC130BD150F8042B51F8043B9A4209D125
:100B6000A2EB0C03934313EACC13DBD04FF000004D
:100B7000704700BFD01A01BAB1FA81F101F0180133
:100B800022FA01F0CB40DBB2C0B2C01AC1F12001A1
:100B90002CFA01F3D11A914311EAC311E6D170473F
:100BA00001491820ABBEFEE7260002007047000096
:100BB000012101FA00F040F24411C043C1F20001EA
:100BC00051E8002F024041E80023002BF8D1704784
:100BD0002DE9F04F81B044F20009C5F2000940F25E
:100BE000481A09F586754FF0010BC1F2000A00267C
:100BF00000270DE02968994308432860686840F0A1
:100C00000100686014360137A02E05F1200559D087
:100C1000D9F800000BFA07F42042F3D0D9F8040009
:100C2000204211D0C9F808400AEB0608D8E90201B1
:100C300088421DD1F8B2FFF7BBFFD8F81010002989
:100C4000E0D0012012E000BFD9F80C002042D9D03A
:100C5000002068602860F8B2FFF7AAFFC9F81040CA
:100C60000AEB060001690029CCD002208847C9E7B9
:100C7000401A40F6FF72904228BF10460144C8F85F
:100C80000C10296840F6FF7349010BD55AF806107D
:100C900045F80C1C2A68C2F3814200FA02F21144A2
:100CA0004AF8061029680901A4D5D8F8041045F8B7
:100CB000081C2A68C2F3415200FA02F21144C8F833
:100CC000041097E701B0BDE8F08F0000B0B5002038
:100CD00000214FF4A072F02300F068FB222003F003
:100CE00063F803F095F840F230054FF49634C1F202
:100CF000000500BF288803F075F8013CFAD103F025
:100D000095F80020B0BD00002DE9F04740F24027E3
:100D1000C1F2000714463A68002A4FD01688558859
:100D2000D2F80490D2F80C8032462B4600F03EFBFD
:100D3000222003F039F803F06BF838684088C0B31C
:100D4000F01DC008A4EB0901484300FB058440F2F4
:100D50007A2940F2300A4FF00008C1F20009C1F2CE
:100D6000000A06E0386808F101084088013480452F
:100D70001FD2386800880028F4D0002605E000BFA4
:100D80003868013600888642ECD2207806F00705E4
:100D9000E840C007484608BF5046008803F022F8E4
:100DA000072DEDD1386800880138864218BF01341C
:100DB000E6E703F03BF80020BDE8F0874FF0FF3096
:100DC000BDE8F087F0B581B01346127892B140F2D9
:100DD00040270C4605465E1EC1F200072846214604
:100DE000FFF792FF3868B2780088002A054406F1C0
:100DF0000106F3D1002001B0F0BD000070B582B053
:100E0000012000F03BFB00240020062100220023EB
:100E1000009400F06FFB00200621012200F03CFB53
:100E200000200621012200F01BFB02F011FC044609
:100E300045F27C40C0F2000081680569466A0020E6
:100E400088470220A84748F201304BF62041C0F203
:100E50000800C0F2BE01B04714B902F04FFC0446CE
:100E600040F2E810C1F20000472C40F00681012159
:100E70000170EA20002102F0E1FFEB20202102F0C6
:100E8000DDFFEC200C2102F0D9FFED20C72102F09C
:100E9000D5FFE820382102F0D1FFE920102102F02F
:100EA000CDFFF120012102F0C9FFF220102102F054
:100EB000C5FF4020012102F0C1FF4120002102F0C6
:100EC000BDFF4220002102F0B9FF4320102102F0B3
:100ED000B5FF44200E2102F0B1FF4520242102F08D
:100EE000ADFF4620042102F0A9FF4720502102F067
:100EF000A5FF4820022102F0A1FF4920132102F0A2
:100F00009DFF4A20192102F099FF4B20192102F080
:100F100095FF4C20162102F091FF50201B2102F07A
:100F20008DFF5120312102F089FF52202F2102F044
:100F300085FF53203F2102F081FF54203F2102F022
:100F40007DFF55203E2102F079FF56202F2102F02F
:100F500075FF57207B2102F071FF5820092102F014
:100F60006DFF5920062102F069FF5A20062102F088
:100F700065FF5B200C2102F061FF5C201D2102F067
:100F80005DFF5D20CC2102F059FF1B201B2102F0E8
:100F900055FF1A20012102F051FF24202F2102F0D9
:100FA0004DFF2520572102F049FF2320882102F020
:100FB00045FF1820362102F041FF1920012102F0DF
:100FC0003DFF0120002102F039FF1F20882102F09F
:100FD00035FFC82002F074F81F20822102F02EFF96
:100FE000322002F06DF81F20922102F027FF3220FC
:100FF00002F066F81F20D22102F020FF322002F01A
:101000005FF81720552102F019FF0020002102F09F
:1010100015FF2F20112102F011FF3120002102F0D5
:101020000DFF3220002102F009FF2820382102F0B4
:1010300005FFC82002F044F828203C2102F0FEFE03
:101040001620A82102F0FAFE0E20002102F0F6FE82
:101050000F20002102F0F2FE1020012102F0EEFE2E
:101060001120402102F0EAFE1220002102F0E6FEEB
:101070001320002102F0E2FE78E10021017001203E
:101080004FF4807102F0DAFE02204FF4E06102F0CA
:10109000D5FE0420002102F0D1FE082040F20721F5
:1010A00002F0CCFE0920002102F0C8FE0A20002137
:1010B00002F0C4FE0C20002102F0C0FE0D20002131
:1010C00002F0BCFE0F20002102F0B8FE102000212B
:1010D00002F0B4FE1120002102F0B0FE1220002127
:1010E00002F0ACFE1320002102F0A8FEC82001F09F
:1010F000E7FF102041F2B02102F0A0FE11200721ED
:1011000002F09CFE322001F0DBFF122040F2BD1104
:1011100002F094FE322001F0D3FF13204FF4A051CF
:1011200002F08CFE29200E2102F088FE322001F010
:10113000C7FF2020002102F081FE2120002102F0C3
:101140007DFE42F29350844252D045F208408442E0
:101150007AD1302040F60D3102F070FE312041F698
:10116000231102F06BFE322041F6264102F066FEAA
:10117000332042F21C6102F061FE342042F2194138
:1011800002F05CFE352040F60B5102F057FE36208F
:1011900041F2060102F052FE37204FF4C26102F024
:1011A0004DFE382040F2067102F048FE39204FF41F
:1011B000417102F043FE3A2040F6056102F03EFE26
:1011C0003B2040F6016102F039FE3C204FF487716C
:1011D00002F034FE3D2040F20E5102F02FFE3E2080
:1011E00040F2034102F02AFE3F2040F2076158E03E
:1011F0003020002102F022FE312040F2076102F08F
:101200001DFE322040F2053102F018FE352000218B
:1012100002F014FE362041F2046102F00FFE372086
:101220004FF4017102F00AFE3820012102F006FE9F
:10123000392040F2077102F001FE3C20002102F04B
:10124000FDFD3D200F212CE03020062102F0F6FDAF
:10125000312040F2011102F0F1FD3220032102F0B1
:10126000EDFD35204FF4837102F0E8FD362040F6A5
:10127000023102F0E3FD372040F2023102F0DEFDE0
:10128000382040F2077102F0D9FD3920072102F021
:10129000D5FD3C204FF4C06102F0D0FD3D2040F26E
:1012A0000B2102F0CBFD5020002102F0C7FD5120A0
:1012B000EF2102F0C3FD5220002102F0BFFD5320B8
:1012C00040F23F1102F0BAFD42F2935084424FF4D3
:1012D0001C5105D045F20840844218BF4FF4274105
:1012E000602002F0ABFD6120012102F0A7FD6A2021
:1012F000002102F0A3FD8020002102F09FFD81204B
:10130000002102F09BFD8220002102F097FD832046
:10131000002102F093FD8420002102F08FFD852042
:10132000002102F08BFD9020102102F087FD922019
:10133000002102F083FD9320032102F07FFD952020
:101340004FF4887102F07AFD9720002102F076FDBB
:101350009820002102F072FD032041F2380102F0D2
:101360006DFD072040F2371102F068FD04201C21BA
:10137000012200F075F8002002B070BD40F230028A
:101380000146C1F2000200201180704740F2402265
:101390000146C1F2000200201160704740F27A223B
:1013A0000146C1F20002002011807047F0B581B003
:1013B00005461044471E40F2E810C1F200000078D4
:1013C0000C4619440128A1F1010622D1C5F30F21D1
:1013D000022002F033FDE9B2032002F02FFDC7F333
:1013E0000F21042002F02AFDF9B2052002F026FDAB
:1013F000C4F30F21062002F021FDE1B2072002F024
:101400001DFDC6F30F21082002F018FDF1B20920DE
:1014100017E0A4B25020214602F010FDB1B25120D5
:1014200002F00CFDADB25220294602F007FDB9B220
:10143000532002F003FD2020214602F0FFFC212072
:10144000294601B0BDE8F04002F0F8BC4CF21402AD
:101450004001C2F209021058C84000F00100704774
:10146000012303FA01F14CF20003C2F20903002A3E
:1014700003EB40100CBFC161816170474CF2C401A5
:10148000C4F20F010A68002842F4004308BF22F4A6
:1014900000430B60704700004CF200034FF0010C5A
:1014A000C2F209030CFA01F14001002A1A580CBFDC
:1014B00022EA010111431950704700004CF2A810B4
:1014C000C4F20F000068C0F30150013802289ABF2F
:1014D00005A151F82000042040F22C01C1F20001C6
:1014E0000968B1FBF0F07047010000000200000045
:1014F00008000000F0B54CF2680C4FF0000E01241B
:10150000C600C4F2020C0F2988BF4FF0010E04FA86
:1015100001F488BF103946EA8E06C9B26644490014
:10152000032756F8685C8F40BD4346F8685C56F860
:10153000685C8A402A4346F8682C56F8282C03FA3F
:1015400001F1BA4346F8282C56F8282C059D114382
:1015500046F8281C5CF82010012D0CBF2143A14344
:101560004CF820100020F0BDB0B50024C4F20204F5
:1015700065680120E906E0610CD540F2EC11C1F28A
:101580000001096840F2F612C1F20002107009B1C0
:1015900004208847A8060DD540F2EC11C1F20001E5
:1015A000096840F2F410C1F200000122027009B192
:1015B00002208847280659D540F2F810C1F20000F1
:1015C0000168026991421DD98568A5B16B1C8360D1
:1015D00095F800C023685B070FD5236813F4706F7C
:1015E00003D0236813F4706F07D0AB1C83606B7853
:1015F0004CEA032C01E0B0F818C01FFA8CF301325A
:10160000A3600261C268914230D9A168426892B178
:10161000531C43601170226852070CD5226812F4E3
:10162000706F03D0226812F4706F04D04268090A08
:10163000531C43601170C168026801319142C1605E
:1016400018BFB0BD206840F2EC1120F0800020608F
:10165000C1F20001096840F2F010C1F2000000225E
:10166000027019B10120BDE8B0400847B0BD0000CC
:1016700000F022B800F0E4B900F0F0B900F006BACA
:1016800080B500F06BFA002080BD000000F098BA31
:1016900000F018BB00F042BB00F06CBB80B500F05E
:1016A0009DFB002080BD00000620704740F2022014
:1016B000C0F20A20704700002DE9F04F83B040F2DD
:1016C000142AC1F2000A9AF80C200E46910702D49F
:1016D0004FF0FF3523E0C4B20746142C1AD1002086
:1016E000C4F203004168002521F00201416040F28C
:1016F0002421C1F200014561C1E90055C1E902554B
:10170000C1E904558D618AF80450416841F0020135
:10171000416004E09AF8040028B16FF00105284602
:1017200003B0BDE8F08F132C6FF00305F7D8DFE8A6
:1017300004F00E22880B0B0A0A0A0A0A0A0A0A0A8D
:101740000A0A3AB8C7CEEAE76FF00605E7E70020D5
:10175000C4F203004168002521F0020141604561A7
:10176000DAF8080020F0FF00CAF8080002F0FB00D9
:101770008AF80C00D3E70020C4F20300416821F08E
:101780000201416000214161416821F00401416092
:1017900001218AF8081042F004018AF80C1041680F
:1017A00041F002014160002E00F0A6800297FFF791
:1017B00085FE050133014FF0020C4FF0000B4FF096
:1017C00000094FF002080020414604E04144B2F510
:1017D000807F104612D0B5FBF1F7BB4219D000F163
:1017E0000102F3D9A3EB0B06E646A3EB070C664513
:1017F000F44682BFC4468146BB46E7E708F10208CB
:10180000B8F1FF0FDFD3BBF1000F04D14FF0FF356C
:1018100085E7C446814600215FFA8CF0C4F20301DB
:1018200008610868102C20F47F4008604FEA092006
:101830000A6880B240EA02000860029F19D10025C0
:101840006DE70020C4F20300416821F0020141600D
:10185000416841F0040141600121416102218AF89F
:10186000081042F004018AF80C10416841F00201AE
:101870004160DAF80800C1B2012970D1C7F3C14153
:10188000DFE801F002405B970026002006210022DD
:1018900000230096FFF72EFEDAF8080020F4C010AF
:1018A0005BE0FFF70BFE0021C4F203010A6909683F
:1018B000D2B2C1F3072101315143B0FBF1F52EE75C
:1018C00040F22420C1F200000683002527E7DAF861
:1018D0000800FF21C0F2180108400121C0F20801F0
:1018E00088420CD100200621002E14BF00220122C4
:1018F0000025FFF7B5FD12E74FF0FF350FE74FF07A
:10190000FF350CE720F4C010CAF8080000260020BC
:101910000621002203230096FFF7ECFD002006219C
:101920000122FFF7B9FD002006210122FFF798FDF3
:10193000DAF8080040F400200FE020F4C010CAF8E4
:101940000800002600200621022203230096FFF74C
:10195000D1FDDAF8080040F48010CAF80800DAF87F
:101960000800C1B202290DD120F40010B902CAF852
:1019700008001BD400260020062102220323009623
:10198000FFF7B8FDC7F30221052919D80020C4F2DA
:101990000300DFE801F003182430383B016821F030
:1019A00030010160016821F0C00133E06FF00A05E9
:1019B000B5E620F4C010CAF808006FF00A05AEE6DC
:1019C0006FF00705ABE6016821F0300101600168A6
:1019D00021F040010160016841F080011AE00168D6
:1019E00021F030010160016841F0400101600168AF
:1019F00021F080010EE0016821F0300101600168F2
:101A000041F0C00106E00168012201E00168022204
:101A100062F305110160C7F305310A1F0C2A0BD8C8
:101A20000268013922F00F021143016078036FF060
:101A3000090101EAE07572E66FF008056FE6000043
:101A400040F21420C1F2000040F22421007BC1F2D8
:101A50000001C968400701EAE070704782B040F2B7
:101A60001420C1F2000000990279437962F3000169
:101A700080790091009963F341010091009960F32E
:101A8000820100910098019002B0704710B50020CB
:101A9000C4F20300C46904F003010162C16889074C
:101AA00040F22421C1F200011BD50B68D1F810E0EF
:101AB000734516D98B6863B15A1C8A6093F800C0CD
:101AC0000268120707D59A1C8A605A784CEA022CE1
:101AD00001E0B1F818C01FFA8CF282600EF1010229
:101AE0000A61C268520729D5D0F808C00B68CA68D5
:101AF000934223D94B686BB15A1C4A6083F800C0EB
:101B00000268120706D54A684FEA1C2C531C4B602A
:101B100082F800C0CA680B6801329A42CA600DD1CF
:101B20004169002221F00F01416140F21420C1F20D
:101B300000000168027109B101208847E00708BF71
:101B400010BD40F21420C1F2000001680122427170
:101B500019B10220BDE81040084710BDB0B582B0F1
:101B600040F21424C1F20004217BC90725D1206072
:101B700040F224200025C1F20000C0E90055C0E970
:101B80000255C0E904558561002007210222002387
:101B9000A580A5710095FFF7ADFC00200821022269
:101BA00000230095FFF7A6FC002009210222002354
:101BB0000095FFF79FFC0120207302B0B0BD00002C
:101BC00010B502283BD0012835D0002842D100F0C2
:101BD00021FA4CF2C400C4F20F000168002441F461
:101BE000806101600C21C4F2030103228C608C61CE
:101BF00041F80C4C41F8084C4C604A61016821F4F2
:101C00008061016000F0FEF940F21420C1F2000092
:101C100040F224218480C1F20001C1E90044C1E9FD
:101C20000244C1E904448C61017B847101F0FD012F
:101C30000173204610BD6FF00304204610BD40F232
:101C40001420C1F20000017BCA0707D14FF0FF3416
:101C5000204610BD6FF00404204610BD8A074FF0E7
:101C60000004EAD44CF2C40EC4F20F0EDEF80020D9
:101C700041F0020142F48062CEF80020DEF8E42058
:101C800022F44012CEF8E420DEF8E4C00C224CF43A
:101C90008013C4F20302CEF8E4300323946053614E
:101CA00084808471017300BF1068400702D552F828
:101CB000040CF9E700F0A6F900F0C0F90024204672
:101CC00010BD0000024600286FF0040018BF002974
:101CD00000D1704740F21423C1F20003187B400783
:101CE0005CBF4FF0FF307047187900281CBF6FF0C1
:101CF00001007047012098800020987140F2242351
:101D0000C1F20003C3E900121421C4F203010F223F
:101D1000C3E9020018610A6070470000024600280B
:101D20006FF0040018BF002900D1704740F214235F
:101D3000C1F20003187B40075CBF4FF0FF307047D3
:101D4000187900281CBF6FF00100704701209880AF
:101D50000020987140F22423C1F20003C3E900106F
:101D60001421C3E90220C4F203010F2218610A60A2
:101D700070470000034600286FF0040018BF0029D8
:101D800000D17047002A08BF704740F2142CC1F2FE
:101D9000000C9CF80C0040075CBF4FF0FF30704710
:101DA0009CF8040000281CBF6FF001007047012060
:101DB000ACF8040000208CF8060040F2242CC1F29C
:101DC000000CCCE900211421C4F203010F22CCE95C
:101DD0000230CCF810000A607047000010B582B0E5
:101DE000002400200621002200230094FFF782FB3C
:101DF00000200721002200230094FFF77BFB002036
:101E00000821002200230094FFF774FB0020092121
:101E1000002200230094FFF76DFB40F21420C1F272
:101E20000000047302B010BD10B54CF28804C4F277
:101E30000F042068D4F8841000F04070B0F1407FA7
:101E400001F003001BD1DFE800F002284002206807
:101E50002268400080B240F600110230C0F23D011D
:101E6000C2F30742A0FB010101320023FEF76AFA28
:101E7000E26F0023D2B20132FEF764FA4AE0DFE8F3
:101E800000F002384202E06F40F60011C0B20130AB
:101E9000C0F23D01B1FBF0F03CE020682268400058
:101EA00080B241F600310230C0F2B701C2F30742FE
:101EB000A0FB010101320023FEF744FAE26F002388
:101EC000D2B20132FEF73EFA24E020680021C7F6C4
:101ED000FF7101EA0040216800F58030C1F307413D
:101EE000E26F0131B0FBF1F0D1B20131B0FBF1F0A2
:101EF00010E0E06F41F60031C0B20130C0F2B7012E
:101F0000B1FBF0F006E0E06F4FF40041C0B20130E9
:101F1000B1FBF0F040F22C01C1F20001086010BDED
:101F20004CF28C00C4F20F002021C0F81411D0F83C
:101F30001411890604D500BFD0F814114906FBD549
:101F40000321816700216322C0F81C11C0F8201111
:101F50000121C0F20502C0F8801040F8082CAA2226
:101F600055230260036040F80C1C0260036000BF50
:101F700050F8041C4901FBD5032140F80C1CAA2190
:101F800001605521016000BF50F8041C01F0407150
:101F9000B1F1407FF8D123218161AA21552201238B
:101FA0000162026243610162026200BFC1694905C8
:101FB000FCD503214161AA2101625521016200BFC4
:101FC000C16901F44071B1F5407FF9D148F2DE7189
:101FD000C0F2284181630021C0F83C1150F88C1CEC
:101FE000042262F30F3140F88C1C704748F2000065
:101FF000C4F200000168C90708BF704701210160F1
:1020000001F094BE4EF28020CEF200004FF4004169
:10201000016070474EF28010CEF200004FF4004194
:102020000160BFF34F8FBFF36F8F70474EF2001008
:10203000CEF2000004210160704700004EF2001053
:10204000CEF200004FF400410160704740F20501FC
:10205000C1F200010978002908BF7047006844F602
:10206000F50CC0F2000C4FF6FF7100DF7047000066
:1020700040F20501C1F200010978002908BF70474C
:10208000006844F61D0CC0F2000C00DF7047000031
:1020900001F0EEFF46F66020C0F20000002102F0E1
:1020A00097F801F0F7FF00BFFEE700002DE9F04FC1
:1020B0008BB040F26020C1F2000000784CF2C00604
:1020C00046F6B81740F27C25C0F2C0060028C0F2E0
:1020D0000007C1F2000566D128684FF0FF3102F019
:1020E00049F86FF07F40FFF749F9FEF7EFFDFF2059
:1020F000FFF754F9AAA200200021FEF763FE46F67E
:10210000D82946F6AE3A46F6B03BB846A7F11404D5
:102110003025C0F20009C0F2000AC0F2000B0DF138
:10212000090700BF6FF07F40302D08BF3046FFF732
:1021300025F9002029464A46FEF744FE54F8143F8C
:102140005A46A068302D066808BF524638462321FB
:1021500000964CF2C006C0F2C006FEF76BF90020F4
:1021600029463A46FEF72EFE1835782DDAD14FF47F
:102170007F00FFF713F98FA200209021FEF722FEC7
:1021800092A20020A821FEF71DFE40F27C25C1F29C
:102190000005286801F0E2FF40F260210120C1F251
:1021A00000014746087046F6D8284FF0FF3000245B
:1021B000C0F200080DF1090B4FF000094FF0000AC2
:1021C000019032E04CF2C000C0F2C000FFF7D6F838
:1021D0000AEB4A0004EBC004002021464246FEF709
:1021E000F1FD0AEB8A0007EB8001896857F820307F
:1021F0000D6846F6AE3258462321C0F20002009523
:10220000FEF718F9FF20FFF7C9F8002021465A46CB
:10221000FEF7D8FD40F27C25C1F20005286801F0E8
:102220009DFF142001F018FF344601F089FA06469C
:1022300001F066FFA0EB09016429F2D3E1074FF03A
:10224000000140F08780019D16F0010209D00022B4
:10225000BAF1000FC8BFAAF101020121814655461B
:102260009246A2070CD416F0020209D00222BAF15B
:10227000020FB8BF0AF1010201218146554692467C
:10228000220711D416F008020ED00AEB8A0107EBE0
:102290008101896881460A68643A0A600A68632A8B
:1022A000DCBF64220A600121E20614D416F0100299
:1022B00011D00AEB8A0107EB8101896841F2893369
:1022C0000A68814664320A600A689A42A4BF41F2F1
:1022D00088320A600121600706F0040000D4F0BBD8
:1022E000002901959DD040F27C20C1F200000068D9
:1022F0004FF0FF3101F03EFF019D3024681C3FF498
:1023000061AF6FF07F40FFF739F805EB45003021F2
:1023100001EBC004002021464246FEF753FD05EBC9
:10232000850007EB8001896857F820300D6846F674
:10233000B03258462321C0F200020095FEF77AF829
:10234000FF20FFF72BF8002021465A463024FEF7E5
:1023500039FD37E7019DA2077FF585AF90E740F291
:102360007C20C1F2000040F2602200210446006897
:10237000C1F2000211704FF0FF3101F0FBFE6FF06F
:102380007F40FEF7FBFFFEF7A1FC206801F0E6FEB0
:102390004FF0FF3000F0AEFE0BB0BDE8F08F00BF95
:1023A00041646A757374204F4E204475726174697C
:1023B0006F6E7300552F443A53656C656374204CFF
:1023C0002F523A41646A75737400000043656E745D
:1023D00065723A436F6E6669726D00002DE9F04FC9
:1023E00085B040F27C2BC1F2000BDBF800100446F4
:1023F00008464FF0FF3101F0BDFE6FF07F40FEF761
:10240000BDFFFEF763FCFF20FEF7C8FF46F6B811DC
:1024100004EB8400C0F2000151F820306C4601EB5F
:1024200080056AA220461421FEF704F8002000214E
:102430002246FEF7C7FC6AA200203021FEF7C2FC4C
:102440006DA200204821FEF7BDFC4FF47F00FEF78F
:10245000A5FF6DA200207821FEF7B4FC0020FEF756
:102460009DFF6E6846F618323368C0F200022046BF
:102470001421FDF7DFFF002060212246FEF7A2FCB9
:10248000DBF8000001F06AFE46F6D829C0F2000928
:102490004FF000084FF0000A04E000BF142001F0E4
:1024A000DBFDBA4601F04CF9074601F029FE05466E
:1024B000A0EB08006428F1D35FEACA7031D117F0AD
:1024C00001002ED030684FF0FF310A3030603068A4
:1024D000B0F5805FA4BF40F6FF703060DBF800000D
:1024E00001F048FE6FF07F40FEF748FF0020FEF746
:1024F00055FF002060214A46FEF764FC336846F62B
:10250000183220461421C0F20002FDF793FF00208C
:1025100060212246FEF756FCDBF8000001F01EFEAB
:10252000A8465FEA8A7030D417F002002DD03068D8
:102530004FF0FF310A3830603068B0F1FF3FDCBF48
:1025400000203060DBF8000001F014FE6FF07F40E7
:10255000FEF714FF0020FEF721FF002060214A460D
:10256000FEF730FC336846F6183220461421C0F2DC
:102570000002FDF75FFF002060212246FEF722FCEB
:10258000DBF8000001F0EAFDA8465FEA4A7007F0B8
:1025900004003FF583AF00283FF480AFDBF8000074
:1025A0004FF0FF3101F0E6FD6FF07F40FEF7E6FEF1
:1025B000FEF78CFBDBF8000001F0D0FD4FF0FF30A0
:1025C00000F098FD05B0BDE8F08F00BF53657420A2
:1025D0002573205468726573686F6C640000000096
:1025E000557365206A6F79737469636B2055702F1A
:1025F000446F776E00000000746F2061646A757329
:10260000742076616C75650043656E746572207424
:102610006F20636F6E6669726D0000002DE9F04FE8
:102620008DB040F26920C1F200000078012840F02E
:102630007F8140F26420C1F2000000784CF2C005B6
:1026400046F6B818C0F2C0050028C0F200087AD1DA
:1026500040F27C20C1F2000000684FF0FF3101F031
:1026600089FD6FF07F40FEF789FEFEF72FFBFF200C
:10267000FEF794FEB0A2002000210027FEF7A2FB87
:1026800046F6A03A46F6A23BC14646F6ED2830246F
:10269000C0F2000AC0F2000B0DF11106C0F20008F2
:1026A0006FF07F40002F08BF2846FEF767FE46F612
:1026B000D82200202146C0F20002FEF783FB5A46D2
:1026C00009EB0700002F08BF52460169C06849693D
:1026D00046F6F825C0F2000559F80730084208BF51
:1026E00045463046232100954CF2C005C0F2C00596
:1026F000FDF7A0FE002021463246FEF763FB1437AB
:102700003C2F04F11804CBD14FF47F00FEF746FEB6
:102710008EA200209021FEF755FB46F6CF32C0F284
:1027200000020020A821FEF74DFB40F27C20C1F200
:102730000000006801F012FD40F264210120C1F2A6
:102740000001C84608704FF0FF3046F6D8290290C5
:102750000026C0F200090DF1110500204FF0000B1A
:1027600003903CE04CF2C000C0F2C000FEF706FE51
:102770000BEB4B0004EBC004002021464A46FEF759
:1027800021FB0BEB8B0007EB80010A69C9685269DA
:1027900057F82030114246F6F82646F6A032C0F22D
:1027A000000628464FF02301C0F2000208BF46464B
:1027B0000096FDF73FFEFF20FEF7F0FD00202146CA
:1027C0002A46FEF7FFFA40F27C20C1F200000068C2
:1027D00001F0C4FCB846142001F03EFC564600F05F
:1027E000AFFF824601F08CFC04460398201A64284F
:1027F000F1D3F0074FF0000079D1029A1AF00101ED
:102800000AD000212246BBF1000FC8BFABF1010185
:1028100001205A468B460394B1070DD41AF00201E9
:102820000AD002212246BBF1020FB8BF0BF1010111
:1028300001205A468B46039416F0180F029208D1D5
:102840001AF0180105D05FFA8BF001F0C1F90120F0
:10285000039471070AF0040101D400294BD1002828
:10286000B9D040F27C20C1F2000000684FF0FF3187
:1028700001F080FC029E474646F6ED28701C4FF0A2
:102880003004C0F200083FF46DAF6FF07F40FEF7F8
:1028900075FDFF20FEF782FD06EB4600302101EBBF
:1028A000C004002021464A46FEF78CFA06EB86005B
:1028B00007EB80010A69C968526957F82030114254
:1028C00046F6F82646F6A232C0F2000628464FF039
:1028D0002301C0F2000208BF46460096FDF7AAFD9C
:1028E000002021462A463024FEF76CFA3AE7029A85
:1028F000B10793D5A0E740F27C20C1F2000040F27E
:102900006422002104460068C1F2000211704FF0F9
:10291000FF3101F02FFC6FF07F40FEF72FFDFEF737
:10292000D5F9206801F01AFC4FF0FF3000F0E2FB0F
:102930000DB0BDE8F08F00BF4163747561746F72B4
:102940007320436F6E74726F6C00000055702F44DB
:102950006E3A53656C656374204C2F523A4F4E2F7C
:102960004F464600047846F6B81104EB8400C0F2E6
:10297000000101EB800000F10C01103040F26925EC
:1029800040F2502BD1F800A0066843F6543940F2CB
:102990005007C1F20005C1F2000BC1F20009C1F2FB
:1029A000000702E0C82001F057FB28780128F9D081
:1029B000287870B128780228F7D159F82400002827
:1029C00046D057F82400012832D1C6F818A02BA011
:1029D00039E0DBF800004FF0FF3101F0CBFB40F2B3
:1029E000542040F24401C1F20000C1F2000150F84D
:1029F000240051F824104FF0000888424FF00001E5
:102A0000A8BF0121D8BF4FF00108DBF80000002C5F
:102A100008BF884601F0A2FB1C20B8F1000F18BFC8
:102A2000182046F800A04FF4FA7001F015FBBCE73F
:102A300057F8240020B1204601F0CAF806A002E0B1
:102A4000C6F81CA009A000F067FF002049F8240088
:102A5000642001F001FBA8E754696D6572204C45C4
:102A60004420544F47474C450D0A000054696D659A
:102A700072204C4544204F46460D0A0054696D654E
:102A800072204C4544204F4E0D0A00002DE9F04FB6
:102A900093B040F25C05C1F2000543F65437A5F14E
:102AA0000C0000211E22C1F20007002340F80C1F79
:102AB0004160826047F823100133032BF6D143F6BF
:102AC000483B43F64C37C1F2000B0020C1F200072F
:102AD00040F26824CBF800003860C1F2000420788E
:102AE0004FF0000890BB40F27C26C1F2000630682F
:102AF0004FF0FF3101F03EFB6FF07F40FEF73EFCF0
:102B0000FEF7E4F8FF20FEF749FC46F6BA32C0F2C1
:102B1000000200200021FEF755F94FF47F00FEF778
:102B20003DFC0FF2F4420020A821FEF74BF946F6D7
:102B3000CF32C0F200020020C021FEF743F9306816
:102B400001F00CFB4FF0010884F800804FF0FF30DB
:102B50000690281D059040F26C224FF0FF30C1F224
:102B60000002002407904FF0000A002009902AE09C
:102B700040F27C20C1F20000006801F0EFFADBF8BF
:102B800000000FF21C56079038680FF208510690AB
:102B9000099800284FF47F0008BFFF2008BF0E46A9
:102BA000FEF7FCFB002000213246FEF70BF9089EE1
:102BB000142001F051FA0A9C40F26C224FF00008F8
:102BC000B246C1F20002DDF81490002605E000BF15
:102BD0000136032E09F10C0922D0106859F8041CA3
:102BE0008842F5D15068D9F800108842F0D1906839
:102BF000D9F804108842EBD143F65430C1F20000FA
:102C0000012140F8261040F24420C1F2000050F8A3
:102C1000260001F0D1FA40F26C22C1F20002D7E79F
:102C200000F08EFD064601F06BFA011B63293FD9C7
:102C300009990A9000294ED05FEA4A710AD416F029
:102C4000040007D00FF2EC3000F066FE00204FF0D9
:102C5000010809905FEACA700DF12C0940F0CC80A0
:102C600016F0010000F0C8803868002800F0958058
:102C70003968DBF80000012900EB400005EB80001B
:102C800040F0A480416801314160DBF8000000EBB6
:102C9000400005EB800040683C28C0F2AB80DBF8C8
:102CA0000000002100EB400005EB80004160A1E046
:102CB0000DF12C090A94B8F1000F40F01781DBF8F0
:102CC00000000799814240F01181386806998142DD
:102CD0003FF46EAF0AE15FEACA7040F0788116F007
:102CE00001000DF12C090ED0DBF800004FF00108B7
:102CF0000138CBF80000DBF80000B0F1FF3FDCBF8B
:102D00000320CBF800005FEA8A7010D416F00200AE
:102D10000DD0DBF800004FF001080130CBF80000C7
:102D2000DBF800000428A4BF0020CBF800005FEA15
:102D30000A700DD416F008000AD038684FF0010868
:102D4000013838603868B0F1FF3FDCBF02203860DE
:102D50005FEACA600CD416F0100009D038684FF052
:102D600001080130386038680328A4BF00203860AB
:102D70005FEA4A7106F004004FF0000109919AD40D
:102D8000002898D0DBF80000032800F02781ADA0D0
:102D900000F0C2FD01200990A8E0DBF8000000EB84
:102DA000400055F82010013145F82010DBF80000F4
:102DB00000EB400055F8200018281BDBDBF8000072
:102DC000002100EB400045F8201013E0816801313C
:102DD0008160DBF8000000EB400005EB80008068BC
:102DE0003C2807DBDBF80000002100EB400005EB8E
:102DF000800081604FF001085FEA8A7054D416F0B9
:102E0000020051D03868F0B13968DBF800000129C0
:102E100000EB400005EB80002FD141680139416093
:102E2000DBF8000000EB400005EB80004068B0F1EB
:102E3000FF3F37DCDBF800003B2100EB400005EBF7
:102E4000800041602EE0DBF8000000EB400055F808
:102E50002010013945F82010DBF8000000EB40009D
:102E600055F82000B0F1FF3F1CDCDBF80000172113
:102E700000EB400045F8201014E0816801398160C2
:102E8000DBF8000000EB400005EB80008068B0F14B
:102E9000FF3F07DCDBF800003B2100EB400005EBC7
:102EA000800081604FF001085FEA0A700DD416F0CF
:102EB00008000AD038684FF00108013838603868D7
:102EC000B0F1FF3FDCBF022038605FEACA603FF527
:102ED000F2AE16F010003FF4EEAE38680130386004
:102EE00038680328A4BF0020386000BF40F27C206F
:102EF000C1F2000000684FF0FF31089601F03AF986
:102F00006FF07F40FEF73AFA46F6B81A4FF03008F5
:102F10000026C0F2000A002415E04FF078094FF4B3
:102F20007F00FEF73BFA484641465E22FDF7ECFE85
:102F30000DF12C090C36013408F11808302E0AF175
:102F4000140A3FF415AEDBF8000084424FF0000095
:102F500008BFFF20FEF722FADBF800003DA3844201
:102F60003BA008BF0346242E04D1484620213FA29F
:102F700012E000BFA919DAF80000AA59BE462F4690
:102F80004D68D1F808C08DE825003D467746484693
:102F9000202131A2CDF80CC0FDF74CFA00204146AB
:102FA00034A2FDF70FFF002041464A46FDF70AFF15
:102FB000DBF800008442BDD138680028ADD0386805
:102FC0004FF0D809012808BF4FF0A809A7E70DF175
:102FD0002C095FEA8A707FF599AEA8E633A000F06D
:102FE0009BFC40F27C20C1F20000044600684FF0D8
:102FF000FF3101F0BFF86FF07F40FEF7BFF9FDF73A
:1030000065FE206801F0AAF84FF0FF3000F072F87A
:1030100013B0BDE8F08F00BF552F443A53656C657F
:10302000637420416374204C2F523A4669656C6486
:1030300000000000534156452054494D45520D0AA9
:103040000000000045444954204D4F44450D0A00FE
:103050003E200000202000002573257320253032FB
:10306000643A253032643A2530326400257345587D
:103070004954000020202020202020202020202033
:103080002020202020202020202020202020202040
:103090002020000053454C454354204D4F444500EB
:1030A00045444954204D4F4445000000455849547B
:1030B0002054494D4552204D454E550D0A00000003
:1030C00040F22C01C1F200010968890B4843002835
:1030D00008BF704700BF013800BF00BF00BF00BF7E
:1030E00000BF00BF00BF00BF00BF00BF00BFF1D1E5
:1030F000704700002DE9F04F89B004464FF47F007F
:10310000FEF74CF966A200201821FDF75BFE40F2A5
:103110006920C1F20000007863A151F820205020FE
:103120001821FDF74FFE40F27C27C1F200073868F6
:103130004FF0FF3101F01EF86FF07F40FEF71EF9EF
:10314000601C40F27820C1F2000059D000780028BD
:1031500056D043F65035C1F200052868A04200F071
:1031600099806FF07F40FEF709F9FF20FEF716F90E
:1031700004EB44004FF0300946F6D82809EBC006AE
:10318000C0F20008002031464246FDF71BFE46F61D
:10319000F41AC0F2000A5AF8243046F6AB320DF1A8
:1031A0000104C0F2000220462321FDF743F900206C
:1031B00031462246FDF706FE4CF2C000C0F2C000C8
:1031C000FEF7DCF82868424600EB400009EBC0013E
:1031D0000020FDF7F7FD286846F6A9325AF820309E
:1031E000C0F2000220462321FDF724F92868224678
:1031F00000EB400009EBC0010020FDF7E3FD49E0D2
:103200004CF2C00AC0F2C00AFDF760FDFF20FEF7D5
:10321000C5F828A2002000210026FDF7D3FD43F6C3
:10322000503746F6A93B46F6AB3946F6F41830243B
:10323000C1F20007C0F2000BC0F20009C0F20008A2
:103240000DF10105386858F8263086424A4628466E
:103250004FF0230108BF5A46FDF7ECF83868864264
:103260006FF07F4008BF5046FEF788F800202146E7
:103270002A46FDF7A7FD1834F02C06F10106E1D12E
:1032800040F278210120C1F2000140F27C27087051
:10329000C1F20007386800F061FF09B0BDE8F08FA7
:1032A0004D6F64653A000000FB6A0000F16A00009F
:1032B000006B0000477265656E686F757365204D21
:1032C000656E75004CF20400C4F20200016841F41E
:1032D000A82101604CF2C400C4F20F00016841F45F
:1032E0008051016044F2000040F20741C4F2030043
:1032F000C0F22001016070474CF22000C2F20900C8
:10330000016843F6FF4341F030410160016ACFF6A6
:10331000C07341F0040101624CF20C01C4F20201DD
:103320000A681A400A600A6C1A400A64016821F0AF
:10333000F26101607047000080B5FFF7C3FFFFF73F
:10334000DBFF00F029F8BDE8804000F001B8000084
:1033500010B54CF2A810C4F20F0050F8E41C48F26B
:10336000040441F0040140F8E41C0168C4F20004C4
:1033700021F030010160016841F01001016002207C
:10338000206042F20F70A060606103202061FEF7B0
:103390004DFE0120206010BD4CF2C400C4F20F00AD
:1033A0000168832341F0080101604CF20001C4F27E
:1033B00002010A6842F050020A60D0F8E4104CF2B0
:1033C0000C0221F0C001C0F8E41040F22C00C1F260
:1033D0000000006848F2B511C1F64E31A0FB0101B2
:1033E000080CC4F20002090E137002F8081C02F85F
:1033F0000C0C032010707047FEF716FDFFF79CFFC2
:1034000000F036FE46F63020C0F2000000F090FEDC
:1034100040F25021C1F20001086046F63420C0F2AB
:10342000000000F085FE40F27C21C1F2000108603E
:1034300046F63C20C0F20000012100F0A7FE40F259
:103440004424C1F20004206046F64420C0F200008B
:103450000021002700F09AFE606046F64020C0F28E
:103460000000002100F092FEA06046F6A020C0F20D
:103470000000002100F0ACFE46F6C020C0F20000C3
:10348000002100F0A5FE46F6B020C0F200000021A9
:1034900000F09EFE46F67020C0F20000002100F011
:1034A00097FE40F23C0846F6802446F65025C1F2CD
:1034B0000008C0F20004C0F2000500BF08EB0706D8
:1034C0002046314600F084FE2846314600F080FE5A
:1034D0000137032FF2D100F0DDFD00BFFEE7000051
:1034E000FFF70AFFFDF78AFC46F6A810C0F20000BD
:1034F000FDF74CFF4FF0FF30FFF7FCFD43F6503572
:10350000C1F200052C680EE02968002911DD4FF09A
:10351000FF302968084428602046FFF7EBFD2C683F
:10352000142000F099FD00F00BF90028F8D0C10735
:10353000EAD1810704D52968072901DA0120E8E7E3
:10354000400703D42868A042E6D1E9E728680728A5
:10355000F8D8DFE800F004070A0E1216191C00F074
:103560000BFAEFE7FFF75AF8ECE70020FEF736FF1B
:10357000E8E70120FEF732FFE4E70220FEF72EFF26
:10358000E0E7FEF793FDDDE700F0F8F8DAE7FFF794
:103590007DFAD7E7047840F2692540F2502640F2E0
:1035A000542840F2440740F24429C1F20005C1F218
:1035B0000006C1F20008C1F20007C1F2000903E0F1
:1035C0004FF4FA7000F048FD28780028F8D13068F0
:1035D0004FF0FF3100F0CEFD8CB158F8240057F8C1
:1035E0002410884203DC59F8240000F0E5FD30681F
:1035F00000F0B4FD4FF47A7000F02EFDE4E7D8F847
:10360000000039688842EEDAF1E70000FEE70000CA
:10361000FEE70000B0B545F27C40C0F20000456A0C
:1036200013200121A847732000F082FA002000F047
:103630007FFA002000F07CFA0446002000F078FABF
:1036400040EA042413200021A8472046B0BD000012
:1036500010B582B00024002006210022022300942D
:10366000FDF748FF00200721002202230094FDF708
:1036700041FF00200821002202230094FDF73AFFB9
:1036800000200921002202230094FDF733FF0020CF
:1036900007210122FDF700FF002006210122FDF78E
:1036A000DFFE002007210122FDF7DAFE00200621BF
:1036B0000022FDF7D5FE7020012100F051FA002014
:1036C000012100F04DFA002006210122FDF7C8FE7D
:1036D000002006210022FDF7C3FE7320012100F027
:1036E0003FFA0020002100F03BFA044600200621AA
:1036F0000122FDF7B5FE204602B010BD80B50020C6
:1037000000F052FBBDE88040FFF784BF44F20001A7
:10371000C4F203010A6822F007020A6001220B6862
:1037200002FA00F018430860086840F080700860F2
:103730004868B0F1FF3FFBDC4868C0F30B107047EE
:103740004CF23400C2F2090001680223C1F3C051F7
:10375000026803EA126211440268042303EA9242F7
:1037600011440268082303EA5252006811441022EF
:1037700002EA9050084480F01F0070472DE9F04F96
:1037800087B040F2692040F27C24C1F20000C1F20F
:103790000004067820684FF0FF314FF0FF3700F04B
:1037A000E9FCFDF793FA6FF07F40FDF7E7FDFF209E
:1037B000FDF7F4FD46F62632C0F20002002000219B
:1037C0000025FDF7FFFA206800F0C8FC46F6A93B8B
:1037D000C0F2000B0FF218190FF21C1802AC0FF216
:1037E000241A0020009003E0142000F035FC019D15
:1037F000FFF7A6FF019000F083FC0099411A6429AD
:1038000021D3E90715D1019A12F0010106D0002158
:10381000002EC8BF711E0E4603460090A9070BD4A8
:1038200012F0020108D00221022EB8BF711C0E4610
:1038300003E0019AA907F3D50098690702F0040193
:1038400000D4C9BB0090B742CED040F27C20C1F278
:10385000000000684FF0FF3100F08CFC002530279D
:103860006FF07F40AE4204BF4CF2C000C0F2C00017
:10387000FDF784FD58F825304A4620461421AE4213
:1038800008BF5A46FCF7D6FD002039465246FDF7E0
:1038900099FA002039462246FDF794FA1837782F16
:1038A00005F10105DCD140F27C20C1F20000006886
:1038B00000F054FC374697E740F26920C1F200005F
:1038C000067040F27C20C1F20000044600684FF010
:1038D000FF3100F04FFCFDF7F9F9206800F03EFCE5
:1038E0004FF0FF30FFF706FC07B0BDE8F08F00BFD8
:1038F0002020257300000000FB6A0000F16A000030
:10390000006B0000202020202020202020202020CC
:1039100020202020000000000178002908BF704707
:103920004CF20002C4F20002137D9B06FCD511701C
:1039300010F8011F0029F7D17047000040F2502411
:1039400040F25425C1F20004C1F2000520684FF096
:10395000FF3100F00FFC0026F0B2FFF7D7FE45F86C
:1039600026000136032EF7D1206800F0F7FB4FF454
:103970007A7000F071FBE9E72DE9F04F8DB040F26D
:103980007C26C1F2000630684FF0FF3100F0F2FBF8
:103990006FF07F40FDF7F2FCFDF798F9306800F01A
:1039A000DDFB0020049040F25420C1F200000438F6
:1039B000039046F6B81040F2502AC0F2000005AD60
:1039C000C1F2000A143852A4029004E04FF47A7055
:1039D00000F042FB049730684FF0FF31B04600F032
:1039E000C9FB6FF07F40FDF7C9FC0020FDF7D6FC56
:1039F00040F26C20C1F200000146036840688F6805
:103A000000902846202137A20197FCF713FD46F6C7
:103A1000D82200203021C0F20002FDF7D3F90020A7
:103A200030212A46FDF7CEF9DAF800004FF0FF31D9
:103A3000D14600F09FFBFF20FDF7B0FC00201821CD
:103A40002EA2FDF7BFF90020FDF7A8FCDDE902BAC0
:103A5000602700BF5BF8143F5AF8046F2846202106
:103A600022460096FCF7E6FC002039462A46FDF780
:103A7000A9F91837A82FEDD14FF47F00FDF78EFC80
:103A80000020A82124A2FDF79DF9D9F80000CA461C
:103A900000F064FBD8F80000464600F05FFBFFF73B
:103AA0004FFE074600F02CFB0499490707F004017C
:103AB0008CD400298AD0632888D930684FF0FF3130
:103AC00000F058FB6FF07F40FDF758FCFDF7FEF863
:103AD000306800F043FB4FF0FF30FFF70BFB0DB0F9
:103AE000BDE8F08F54696D653A20253032643A257F
:103AF0003032643A2530326400000000446973704B
:103B00006C61792053656E736F722044617461003B
:103B100025733A2025640000507265737320636535
:103B20006E74657220746F2072657475726E000019
:103B300010B582B08DF8070045F27C40C0F200005D
:103B4000C369846A0DF107000DF10601012298474F
:103B5000A047C007FCD19DF8060002B010BD0000D0
:103B6000F0B581B00546481EB0FA80F00C46420917
:103B7000002009210026FDF78FFC072711E000BF78
:103B800000200921FDF762FCB84006430020072110
:103B90000122FDF765FC0120FFF792FA013F781C36
:103BA00012D0002007210022FDF75AFC0120FFF768
:103BB00087FA012CE4D125FA07F000F00102002079
:103BC0000921FDF74DFCE1E7F0B201B0F0BD0000C6
:103BD00046F6B81100EB8000C0F2000101EB800056
:103BE0000169C0684A691C23104208BF1823C850E5
:103BF0007047000098B04CF2000A46F6B81BC4F2B9
:103C0000000A002708ACC0F2000B0FF2A80804AEAF
:103C10000FF2A8096D4604E0E05501370A2000F0D4
:103C20001BFA9AF81400C007F8D09AF800003E2F4B
:103C300001DC0A28F0D10020E055089844F64351F1
:103C4000C3F6442188424FF00007E7D14FF0000A45
:103C500005E000BF0AF1140ABAF13C0F23D05BF86B
:103C60000A703046102142463B46FCF7E3FB2846EB
:103C700010214A463B46FCF7DDFB20463146FCF767
:103C80002FFE20B10BEB0A00D0E903108161204622
:103C90002946FCF725FE0028DCD00BEB0A00D0E912
:103CA0000310C161D6E74CF2000A0027C4F2000AF3
:103CB000B4E700BF25733A4F4E00000025733A4F1A
:103CC0004646000092B040F2502640F25427C1F21E
:103CD0000006C1F200070FF2380802AD30684FF05D
:103CE000FF3100F047FA3B687868BC6800902846CE
:103CF000402142460194FCF79DFB306800F02EFA0B
:103D00002846FFF709FE40F6B83000F0A5F9E5E7D0
:103D100054454D503A25647C4D4F4953543A2564DF
:103D20007C4C494748543A25640A0000B0B540F23B
:103D30006C20C1F2000081680131816081683B29FB
:103D400010DD0021816042680132426042683C2AF5
:103D500008DB416001680131016001681829A4BFD6
:103D60000021016040F25C0243F6543C0021C1F2A4
:103D70000002C1F2000C4FF0010E03E004310C29E7
:103D800008BFB0BD01EB41030468D558AC42F5D182
:103D9000134444685D68AC42F0D184689B689C42DF
:103DA00008BF4CF801E0E9E7F0B581B045F27C418D
:103DB000C0F20001D1E909564F69044613200121E0
:103DC000A8477020ADF801000DF1010003218DF826
:103DD0000340B847B047C007FCD113200021A847D3
:103DE00001B0F0BD10B582B040BAADF8060045F2A2
:103DF0007C40C0F200004269846A0DF10600022195
:103E0000904700BFA047C007FCD102B010BD000022
:103E100080B545F27C40C0F20000426A13200121C7
:103E200090477220BDE88040FFF782BE45F27C409B
:103E3000C0F20000426A132000211047F0B581B0A3
:103E40000C4670218DF80110010A8DF8021045F220
:103E50007C41C0F20001D1E909564F698DF8030099
:103E600013200121A8470DF101000321B84700BF2D
:103E7000B047C007FCD113200021A84772208DF85D
:103E80000100200A8DF80200132001218DF8034063
:103E9000A8470DF101000321B84700BFB047C00794
:103EA000FCD113200021A84701B0F0BD00000000A4
:103EB00010B5002A06DA22F00042D21D22F00703D4
:103EC000102203E0D21C22F003030C2213B19C1831
:103ED0008C4201D9012010BD024401448360C0E935
:103EE0000021C91AD018884202D810600246F9E7AA
:103EF0000020106010BD30380A2801D20120704720
:103F00000020704708480068C0010BD507480068CA
:103F1000C00707D0054880380068002802DA044945
:103F20000120087070470000FCED00E0800E00E00A
:103F3000280000104FF06042D36F002BFCD0036BC1
:103F4000D367D36F002BFCD0C07840EA0120A2F8E1
:103F50007C0070474FF06041CA6F002AFCD081F8A6
:103F60007C0070470EB5802200B109B110460AE00E
:103F700001780129FAD101A900F034F8042801D010
:103F8000002000E01020DDE9011203B000BD70B593
:103F90000D46040003D012B92078012801D08020FA
:103FA00070BD204600F02CFB28B12946204600F0C9
:103FB00044F8002070BD812070BD10B500F09EFA5D
:103FC00010B10178022901D0802010BD4188A1F5EF
:103FD0007F42FF3A03D000F037F8002010BD812067
:103FE00010BD000010B504468089002824D06089E7
:103FF00004EB800000690860606840B160780228C6
:1040000005D10021204600F0FFFC00F0EDFC04F19A
:104010000C0000BFD0E85F1F491E8AB2C0E8512FD4
:104020000029F7D16089401C80B26081E189884213
:1040300001D100206081042010BD10B500F0E4FC27
:10404000BDE8104000F0D0BC10B5002100F0DCFC51
:10405000BDE8104000F0C8BCEFF3058109B1822033
:104060007047DFF808C000DF70470000A95000006B
:10407000EFF3058008B182207047EFF31480C0078A
:1040800003D0DFF80CC000DF704701F017B8000064
:10409000BD50000088B0EFF3058010B1822008B059
:1040A0007047EFF3148010F00301134806D0012984
:1040B0001BD0022911D0032919D113E008A981F3DB
:1040C00009880078C0070BD05FF0020080F31488E5
:1040D000BFF34F8FBFF36F8F09E00078C00706D1A1
:1040E0000320F3E70078C00701D0FF20D7E7DFF80F
:1040F0000CC000DFD3E70000256A00002D5100004E
:10410000EFF3058008B100207047DFF808C000DF3A
:104110007047000075510000EFF305820AB1FFF708
:1041200021BFDFF808C000DF70470000D151000058
:10413000EFF3058109B100207047EFF31481C9073F
:1041400002D10449497819B1DFF80CC000DF70478B
:1041500001F05BB8040000100B520000EFF3058182
:1041600009B182207047DFF808C000DF7047000007
:1041700027520000EFF305820AB182207047DFF872
:1041800008C000DF7047000049520000EFF30582CD
:104190000AB100207047EFF31482D20702D1044A1B
:1041A00052781AB1DFF80CC000DF704701F069B82F
:1041B0000400001083520000EFF3058109B1FFF7FE
:1041C000FCBEDFF808C000DF70470000A752000007
:1041D000EFF305820AB100207047EFF31482D20793
:1041E00002D1044A52781AB1DFF80CC000DF7047E0
:1041F00001F06EB804000010D1520000DFF80CC0CE
:1042000000DFDFF80CC000DFFEE700003D530000D8
:1042100059530000DFF804C000DF704791530000DD
:10422000094C4FF0FF3529462068FFF775FF02461D
:104230000846102AF7D1FFF7EDFF0028F3D0024619
:1042400008469047EFE7000048350010074801682E
:104250004FF0E020416100218161072101610448A4
:10426000016841F07F41016040177047D46A000047
:1042700020ED00E07047000002480068C0F3806055
:104280007047000004ED00E04FF0E0208069024933
:104290000968081A70470000D46A000050E8001F3F
:1042A00031B10B6840E80032002AF7D10846704768
:1042B000BFF32F8FFAE710B568B161B10B3121F070
:1042C0000302016844680B1A1B1B934205D208467F
:1042D00009680029F5D1002010BD210007D0211860
:1042E0000368C1E90032016001F1080010BD4260BD
:1042F000083010BD70B50D46002812D04FF6FF7182
:10430000084C884204D222680146104600F0AAFBFD
:1043100020684570044800F0DDF8BDE8704000F00A
:1043200081BC70BD0C000010B40000100F4810B527
:104330000D4942680E480B680068934204D00A6039
:10434000CB88421E1A448A808A8880B282420AD16F
:1043500000200860054800F0BDF80146BDE81040A7
:10436000024800F0A3BB10BD20000010B4000010F4
:104370001C00001070B5194DE86800282CD0A88AE0
:10438000401EA882002621E0A06838B16168416023
:10439000606810B1A16881606660A6600F48214620
:1043A000183800F083FBA08AA8826078042804D122
:1043B0000B49E08A09880844A08201206070E06807
:1043C000E860E06808B10561E6602661A88A002817
:1043D00002D1EC68002CD7D170BD0000CC000010D9
:1043E0001C00001070B504000FD00D4DA1780126FF
:1043F0002868827891420CD900F074FB28684670D6
:104400002046BDE8704000F00DBC064800F062F8A0
:10441000F7E766702146BDE87040024800F046BBF1
:104420000C000010B40000100321FFF763BF000070
:1044300010B50446008B084320836278618B062AFE
:1044400018D0052A19D1084217D001EA0002628368
:1044500088432083204600F070FB01206070628B4F
:104460000821204600F065FB2146BDE810400348C6
:1044700000F01CBB31EA0002EAD010BDB40000100D
:10448000814202D342688A4201D801207047026803
:104490000A60BFF35F8F50E8003F0A689A42F6D186
:1044A00040E80012002AF2D10020704768B161B1E3
:1044B0000022083902E00246006830B18842FAD191
:1044C0002AB1006810600020704701207047002169
:1044D0004160F8E70146406842684A600B78002274
:1044E000022B05D0012B03D0032B01D04260704773
:1044F00043680BB19960426082607047810700D0C9
:104500000020704770B50446002015462070012237
:104510006270A17084F824106060A060E060206187
:104520002062A082E0822083608384F82500E08CF2
:1045300018B90548FFF7B2FEE06229462046BDE8FB
:10454000704000F01DB800008802001008B1082972
:1045500001D2012070470144091F002201600A6056
:104560004260104670470000034800210160034983
:104570000988C1807047000020000010386A0000E0
:1045800070B5C28C1C4D930802D12A88C2F38D03EA
:10459000C26A02EB8302540700D5121F4FF08074E9
:1045A00042E9021400242646B2F1400242F8246097
:1045B000641C0E2CFAD3C4691462826201632968F8
:1045C000C90014D5112B12D94FF0FF31103B11EB5C
:1045D00053014FF0CC3305D042F8043C42F8083D7B
:1045E000491EF9D1C16A121F8A4200D91360C06AFC
:1045F0000249016070BD00004C6A0000A52E5AE21D
:10460000C1898089081A7047012202700022427015
:104610008270426002814281103982818908C181A1
:10462000704700002DE9F041044640680E464FF007
:10463000000804F10C05E8B36078012701283ED09A
:10464000022813D003285CD10846FFF727FE050097
:1046500057D02046FFF73EFF0446294600F066FA91
:104660006770204600F069FA214621E02046FFF7F6
:1046700031FF0646002100F059FA2189F06904EB68
:1046800081010861D5E85F0F401C81B2C5E8501F69
:104690000028F7D12089401C80B22081E18988421E
:1046A00001D1A4F808807770304600F046FA314610
:1046B000174800E00CE0BDE8F04100F0F7B92046F3
:1046C000FFF708FF04463246102100F032FAC7E730
:1046D000A089E189884216D2208904EB8000066116
:1046E000D5E85F0F401C81B2C5E8501F0028F7D104
:1046F0002089401C80B22081E189884201D1A4F840
:104700000880BDE8F081BDE8F0410320FEF77EBFE0
:10471000B400001070B50446808915460026C0B369
:10472000608904EB8000006908606089401C80B2E9
:104730006081E189884200D16681606810B160784B
:1047400002280BD014F10C04D4E85F0F401E81B294
:10475000C4E8501F0028F7D1002070BD2046FFF7A5
:10476000B9FE0546002100F0E1F92189E86904EB72
:10477000810108612089401C80B22081E189884242
:1047800000D12681284600F0D8F92846FFF72AFEF6
:10479000E2E7FFE73DB10B48626801682AB12046B5
:1047A00000F084F908E0012070BD616001684E608E
:1047B000006884600120607008212846FFF79AFD98
:1047C000F1E700000C000010002814D0411C13D0A9
:1047D0000C4A4FF6FE7190420CD800EB4002C2EB3F
:1047E000C0120948036803EBC202521EB2FBF3F089
:1047F000884204D9084670474FF6FF70704780B270
:104800007047000000093D00206A0000032101708C
:104810000021418041608160C16070472DE9F04115
:104820000446408820B1314DA1682A68914202D0E7
:10483000FF20BDE8F081401E0004000C608053D1D1
:104840002968086AA04209D1E068086208E0C268E5
:10485000A24202D1E268C26002E010460028F6D10E
:1048600091F824000A6A06E053681BB19B788342E2
:1048700000D91846D268002AF6D18870DFF8708017
:104880006168012611B32046FFF724FE0746002188
:1048900000F04CF9384600F050F96680A760386A9D
:1048A000E0603C622968D8F804008A788078824207
:1048B00001D3384616E00E4800F0F8F839460C48A7
:1048C00000F0F4F8286846707E700AE0D8F804100A
:1048D0008A782968824207D9054800F0E7F82868F5
:1048E00046700020FFF77EFD0020A2E70C000010BC
:1048F000B400001070B51C4D0E460446418828686F
:1049000061B1A268824210D1A1F57F40FF3803D087
:10491000491C6180002070BDFF2070BDA060016A4D
:10492000E160046201206080F4E776B191788078DC
:10493000814203D29070A06800F0DEF8606830B168
:104940002046296800F0B2F808E0012070BD286810
:10495000606029680020486028688460092130462A
:10496000FFF7C8FCF1E700000C00001070B51B4811
:10497000012102685170006800F0B4F8184D6C789D
:1049800018E000BF05EBC40148680278EAB1012ACB
:1049900020D000F005F9E878641C844200D100249E
:1049A0000F48801CD0E84F1F491EC9B2C0E8421F03
:1049B000002AF7D1A8780028E4D16C700948FFF7E5
:1049C00089FDBDE8704000F02DB9098989B2FFF773
:1049D0002FFDE0E78968FFF725FEDCE70C000010FB
:1049E00084350010B40000100548017811B1012190
:1049F0004170704703494FF08050086070470000D5
:104A00001400001004ED00E0F0B4154DAB1CEE787E
:104A10004FEA0507D3E84F2FB24202D1BFF32F8FE1
:104A200011E0521CD4B2C3E8424F002AF2D100BFB9
:104A3000D7E84F2F541CB44200D10024E4B2C7E899
:104A4000434F002BF4D1EB78934205D905EBC2021A
:104A5000C2E90101F0BC7047F0BC0220FEF7D6BDF0
:104A600084350010104A10B5D368ABB113469B8A49
:104A700003E08CB12246A48A2344D4688B42F8D345
:104A8000C460D0600261C46804B12061591A818297
:104A9000908A401A908210BD0024C460D060C91A68
:104AA00002619182848210BDCC00001030B5027882
:104AB0000023022A03D0012A01D0032A00D10123B6
:104AC0008C7800E01046426812B19578A542F9D280
:104AD0004A6041601BB102B19160886030BD002026
:104AE000FBE7000003494A68426000228260486098
:104AF00070470000B400001010B5836804462BB95D
:104B0000607801280ED1084B03E09B6818780028D4
:104B1000FBD0204600F026F82146BDE8104018469C
:104B2000FFF7C4BF10BD0000B4000010806A01622E
:104B30007047806AC0E90812704710B50169002902
:104B40000ED0C268CA60C36800223BB18B8A848AD7
:104B500023448B82C3681961C26000E08A820261CB
:104B600010BD0000816839B142684A60416800297F
:104B700001D0806888607047054906E04A68824233
:104B800002D140684860704711460029F6D170474D
:104B9000B40000100222027000224260418070477F
:104BA00010B5416881B1FFF795FC0446FFF7C5FFDA
:104BB0000120607001462046FFF7B8FF2146BDE89E
:104BC00010400348FFF772BF4188491C418010BD67
:104BD000B400001010B5416861B1FFF77BFC0446DA
:104BE0000121FFF7A3FF2046FFF7A7FF2046FFF7AD
:104BF000F9FB02E04188491C4180002010BD000003
:104C000006480068D0E90A10814203D300680449CD
:104C1000884202D00120FEF7F9BC70470C0000105A
:104C2000A52E5AE20749022248604270064A1278CD
:104C3000002A05D006C98A4202D0C078FFF78AB997
:104C4000704700000C0000102800001070B5FFF73E
:104C500059F900200446204A204902E042F8204049
:104C6000401C0B889842F9D31D48342201881D4806
:104C7000FFF71EF91C48008880B240F000421B4834
:104C800001681B48FFF714F91A48082201881A48DE
:104C90000068FFF70DF9194DFF20194AE870EC8400
:104CA00000212846FFF72EFC1648042101704460BD
:104CB00015480170C4600461848214481549056078
:104CC000022068701248047044700978C170BDE811
:104CD0007040FFF749BC000050350010266A000004
:104CE0001C6A0000983200104C6A0000186A00002C
:104CF000880200101E6A0000800200108000001070
:104D000011360000B4000010CC0000100C000010A0
:104D100084350010246A00001B4810B5016841F476
:104D20007F01016000684FF07F4101EA00201649D1
:104D3000C0431439B0FA80F00968C0F10800C1F32B
:104D40000221814200D3481C0F49091F0B686FF0F4
:104D50008072824063F317020A60FFF777FA0B490B
:104D6000002808600EDB00F1E021FF2281F800241A
:104D700000F01F02012191404009800000F1E02075
:104D8000C0F8001110BD000020ED00E01800001078
:104D90000C4810B50268012151700068FFF7A2FEAF
:104DA000FFF7C4FA08480168491C0160FFF7E2FAFE
:104DB00000F0FAFA0548FFF78DFBBDE81040FFF759
:104DC00031BF00000C0000101C000010B4000010E7
:104DD000002805D0810702D10178002900D00020E9
:104DE0007047000030B50B4C0023626805E0956801
:104DF0008D4204D813461268491B002AF7D102607D
:104E0000816012B19568691A91600BB1186030BD6C
:104E1000606030BD040000102DE9F0411E461746C9
:104E200080460D4611F0FF0F00D14D1C1848FFF7CA
:104E300035FA041E16D0280AE762E084E9B2424639
:104E40002046E661FFF75EFB01251248124905E0A6
:104E500000EB850252F8042C32B16D1C0A88954291
:104E6000F6D90020BDE8F081002DFAD000EB8500D6
:104E700040F8044C0948E570007818B1012120463B
:104E8000FFF758F82046FFF7ADFA2846EAE700009A
:104E90009832001050350010266A000028000010DB
:104EA0002DE9F05F584DDFF85891DFF858812968F7
:104EB0004FF0010A002618B1CA78AB46824243D1AE
:104EC0004E70FBF786F929688862FFF799FE28681B
:104ED000046A1FE06068C0B12046FFF7FBFA07468E
:104EE0000021FFF723FE3846FFF727FE87F801A0D1
:104EF00039464648FFF7DAFDE168A4F802A0A7604A
:104F0000386AE0603C620C4604E0E0686680A660B7
:104F1000E6600446002CDDD12868C27808EB8201E7
:104F200041F8046CC16A3A48FFF7AAFA2868C662D9
:104F300099F8001011B10021FEF7FCFF35482968EF
:104F4000FFF79EFA2E6056E03349098888420CD854
:104F500008EB800858F8045C3DB12846FFF702FED4
:104F60002846FFF7EAFD2C6A22E0FF20BDE8F09F0B
:104F70006068C0B12046FFF7ADFA07460021FFF791
:104F8000D5FD3846FFF7D9FD87F801A039461F48FF
:104F9000FFF78CFDE168A4F802A0A760386AE06022
:104FA0003C620C4604E0E0686680A660E660044669
:104FB000002CDDD148F8046C1548E96AFFF760FA67
:104FC000EE6299F8000018B100212846FEF7B2FF02
:104FD00029461048FFF754FA0C48DBF800104068E7
:104FE0008B7882789A4209D981F801A00748DBF8CA
:104FF0000010FFF75BFD0020FFF7F4F90020B5E794
:1050000028000010503500100C000010B4000010F3
:105010008802001098320010266A000070B51A4D00
:1050200080B11A4A128890421FD8194A02EB8000B8
:1050300050F8044CCCB1A17084F824102868A04228
:1050400005D014E028688170286880F82410114881
:1050500040688078884215D90E482968FFF726FDF8
:1050600029680120487000200AE0FF2070BD20461A
:10507000FFF742FD6078012804D10648FFF72AFABD
:10508000FFF7B0F9002070BD0C000010266A000088
:1050900050350010B400001002480068002800D00D
:1050A000C07870470C00001010B5002804D0FFF73E
:1050B0008BFBFFF7B9F9402010BD000010B5134C71
:1050C000207860B91248400705D11248016810489D
:1050D000FFF73CFA08B1852010BDFFF7B7FD0E4978
:1050E000FF2009688870207858B900210B4800F02B
:1050F0005DF80B49086000210A4800F0E9F80A4908
:105100000860012020700020607010BD04000010B5
:1051100060360010486A00000C000010286A000089
:1051200048350010906A00004C35001070B50F4DE6
:10513000687808B1002070BD0D4C206890F82410EC
:105140000020FFF76BFF2068C178FF2903D1816A37
:10515000203181F30988616811B960600020206006
:10516000FFF7DAFD01206870E4E70000040000109A
:105170000C00001070B5FFF787F80446FFF77CF8C5
:105180000849094E0D686D1C48B1FFF77DF8A04233
:1051900000D204463068401C05FB004070BD3068FA
:1051A000FAE70000D46A00001C00001010B50400EB
:1051B00005D0216819B1606808B102780AB10020F1
:1051C00010BD8900103189B2FFF71EFA606810BD6A
:1051D0003EB504000D464FF0800012D02178012921
:1051E0000FD12846FFF7F0FA0246204601A9FFF743
:1051F00091FA012801D0102003E00DB1402000E019
:105200000020DDE9011203B030BD10B5002804D044
:1052100004680CB1207808B1002010BD2046FFF7CB
:10522000F5FA204610BD10B5FFF768F910B1017806
:10523000032901D0802010BDFFF7F0FAFF2801D02C
:10524000002010BD812010BD70B50D46FFF756F946
:10525000040002D02078032801D0802070BD2846A9
:10526000FFF7B2FA01462046FFF744FB012803D0BE
:10527000FF2804D0002070BD0DB1C12070BD812079
:1052800070BD10B5002807D0046824B1207810B98B
:10529000B1F5803F01DB002010BD89B22046FFF749
:1052A00079FC204610BD10B5FFF728F910B1017840
:1052B000022901D0802010BD4188A1F57F42FF3A2C
:1052C00003D0FFF787FC002010BD812010BD000037
:1052D00070B50E46040029D0206838B3606810F11C
:1052E000030F23DB032821DCE16829B11048FEF716
:1052F000E2FF05001AD000E000256068E168001DAB
:1053000040EA012133462A462068FFF785FD40B177
:10531000084901EB8000084950F8040C826A516387
:1053200070BD1DB129460248FFF7C0F8002070BDCE
:105330006036001050350010FD41000010B5FFF739
:10534000ABFE002804D0034901EB800050F8040CA8
:1053500010BD00005035001010B5FFF739FD18B131
:10536000C18C19B1C46A02E0802010BD0024C0784D
:10537000FFF796FDFF2806D01CB121460348FFF732
:1053800095F8002010BD812010BD0000603600108F
:1053900010B5FFF7B3F820B141690A6801691046FA
:1053A00010BD0020014610BD2DE9F041134E746878
:1053B000002C1CD0A068124F401E4FF00108A060C6
:1053C00012E0254624687460002229463868FEF7FA
:1053D000DEFD10B10420FEF719F96879012808D024
:1053E00085F80480002C02D0A0680028E9D0BDE830
:1053F000F0812846E968FFF7F5FCF3E704000010A8
:105400004835001010B500290AD00878002807D0C8
:1054100005487844FBF784FB002801D0002010BD2C
:105420000248784410BD0000FE170000F617000087
:1054300000000000000000003031323334353637D0
:1054400038394142434445464030580030313233C8
:1054500034353637383961626364656640307800C8
:10546000040000080000000000000002000100002D
:10547000100000000200010052000400AD16000000
:10548000A9160000811600009D1600008D16000070
:105490009516000091160000991600007516000080
:1054A00071160000791600000000000000000000E6
:1054B00000000000000000000000000000000000EC
:1054C00000000000000000000000000000000000DC
:1054D0000000000000000000000080018001800149
:1054E00080018001800180018001800180018001B4
:1054F00080018001000000008001800100000000A8
:10550000000000000000000000000000CC00CC0003
:10551000CC00CC00CC00CC0000000000000000005B
:10552000000000000000000000000000000000007B
:10553000000000000000000000000000000000006B
:1055400000000000600C600C600C30063006FE1F8E
:10555000FE1F300638071803FE1FFE1F180318032E
:105560008C018C018C01000000008000E003F80F2A
:105570009C0E8C1C8C188C009800F801E007800EA3
:10558000801C8C188C189C18B80CF00FE00380005D
:1055900080000000000000000000000000000E1865
:1055A0001B0C110C11061106110311039B018E0136
:1055B000C038C06C60446044304430441844186CB7
:1055C0000C380000000000000000E001F003380784
:1055D000180618063003F001F000F8009C310E3375
:1055E000061E061C061C063FFC73F021000000008E
:1055F0000000000000000000000000000C000C0093
:105600000C000C000C000C0000000000000000006A
:10561000000000000000000000000000000000008A
:1056200000000000000000000000000200038001F4
:10563000C000C0006000600030003000300030006A
:10564000300030003000300060006000C000C0005A
:105650008001000300020000000020006000C00084
:10566000800180010003000300060006000600061A
:10567000000600060006000600030003800180010A
:10568000C0006000200000000000000000000000DA
:1056900000000000C000C000D806F807E001300399
:1056A00038070000000000000000000000000000BB
:1056B00000000000000000000000000000000000EA
:1056C0000000000080018001800180018001FC3F1A
:1056D000FC3F80018001800180018001000000000A
:1056E00000000000000000000000000000000000BA
:1056F00000000000000000000000000000000000AA
:105700000000000000000000000080018001000196
:105710000001800000000000000000000000000008
:105720000000000000000000000000000000000079
:10573000E007E0070000000000000000000000009B
:105740000000000000000000000000000000000059
:105750000000000000000000000000000000000049
:1057600000000000000000000000C000C0000000B9
:1057700000000000000000000000000C000C00060B
:10578000000600060003000300038003800180017F
:105790008001C000C000C000600060000000000088
:1057A00000000000000000000000E003F007380ED9
:1057B000180C0C180C180C180C180C180C180C18C9
:1057C0000C180C18180C380EF007E003000000004D
:1057D0000000000000000000000000018001C00186
:1057E000F001980188018001800180018001800121
:1057F00080018001800180018001800100000000A3
:1058000000000000000000000000E003F80F180C8A
:105810000C180C1800180018000C0006000380017A
:10582000C000600030001800FC1FFC1F00000000DA
:1058300000000000000000000000E001F807180E62
:105840000C0C0C0C000C0006C003C007000C001868
:1058500000180C180C18180CF807E00300000000E2
:1058600000000000000000000000000C000E000F0F
:10587000000F800DC00C600C600C300C180C0C0C70
:10588000FC3FFC3F000C000C000C000C0000000072
:1058900000000000000000000000F80FF80F1800E2
:1058A00018000C00EC03FC071C0E001C001800186C
:1058B00000180C181C0C180EF807E003000000007C
:1058C00000000000000000000000C007F00F381CBE
:1058D000181818000C00CC03EC0F3C0E1C1C0C1804
:1058E0000C180C18181C380EF007E003000000001C
:1058F00000000000000000000000FC1FFC1F000C66
:1059000000060006000380038001C001C000E00023
:1059100060006000700030003000300000000000C7
:1059200000000000000000000000E003F007380E57
:10593000180C180C180C3806F007F007180C0C1887
:105940000C180C180C18380CF80FE00300000000BD
:1059500000000000000000000000E003F007380E27
:105960001C0C0C180C180C181C1C381EF81BE01909
:105970000018000C000C1C0EF807F00100000000DD
:105980000000000000000000000000000000000017
:105990000000000080018001000000000000000005
:1059A00000000000000000008001800100000000F5
:1059B00000000000000000000000000000000000E7
:1059C00000000000800180010000000000000000D5
:1059D00000000000000000008001800100010001C3
:1059E0008000000000000000000000000000000037
:1059F00000000000000000000010001C800FE00309
:105A0000F8001800F800E003800F001C00100000F0
:105A10000000000000000000000000000000000086
:105A20000000000000000000F81F0000000000005F
:105A3000F81F00000000000000000000000000004F
:105A40000000000000000000000000000000000056
:105A5000000000000000000008003800F001C0074E
:105A6000001F0018001FC007F001380008000000E8
:105A700000000000000000000000E003F80F180C18
:105A80000C180C180018000C000600038001C00060
:105A9000C000C00000000000C000C0000000000006
:105AA000000000000000000000000000E0071818DF
:105AB0000420C229224A1144094409440944092204
:105AC0001113E20C024004201818E0070000000047
:105AD0000000000000000000000080038003C006FA
